{
  "_format": "hh-sol-artifact-1",
  "contractName": "WavePortal",
  "sourceName": "contracts/WavePortal.sol",
  "abi": [
    {
      "inputs": [],
      "stateMutability": "payable",
      "type": "constructor"
    },
    {
      "anonymous": false,
      "inputs": [
        {
          "indexed": true,
          "internalType": "address",
          "name": "from",
          "type": "address"
        },
        {
          "indexed": false,
          "internalType": "uint256",
          "name": "timestamp",
          "type": "uint256"
        },
        {
          "indexed": false,
          "internalType": "string",
          "name": "result",
          "type": "string"
        }
      ],
      "name": "NewWave",
      "type": "event"
    },
    {
      "inputs": [],
      "name": "getAllWaves",
      "outputs": [
        {
          "components": [
            {
              "internalType": "address",
              "name": "waver",
              "type": "address"
            },
            {
              "internalType": "uint256",
              "name": "timestamp",
              "type": "uint256"
            },
            {
              "internalType": "string",
              "name": "result",
              "type": "string"
            }
          ],
          "internalType": "struct WavePortal.Wave[]",
          "name": "",
          "type": "tuple[]"
        }
      ],
      "stateMutability": "view",
      "type": "function"
    },
    {
      "inputs": [],
      "name": "getTotalWaves",
      "outputs": [
        {
          "internalType": "uint256",
          "name": "",
          "type": "uint256"
        }
      ],
      "stateMutability": "view",
      "type": "function"
    },
    {
      "inputs": [
        {
          "internalType": "address",
          "name": "",
          "type": "address"
        }
      ],
      "name": "lastWavedAt",
      "outputs": [
        {
          "internalType": "uint256",
          "name": "",
          "type": "uint256"
        }
      ],
      "stateMutability": "view",
      "type": "function"
    },
    {
      "inputs": [],
      "name": "wave",
      "outputs": [],
      "stateMutability": "nonpayable",
      "type": "function"
    }
  ],
  "bytecode": "0x60806040526200004f6040518060400160405280601c81526020017f57617665506f7274616c202d20536d61727420436f6e747261637421000000008152506200007760201b62000a191760201c565b606444426200005f9190620001c4565b6200006b919062000261565b60028190555062000308565b62000117816040516024016200008e919062000184565b6040516020818303038152906040527f41304fac000000000000000000000000000000000000000000000000000000007bffffffffffffffffffffffffffffffffffffffffffffffffffffffff19166020820180517bffffffffffffffffffffffffffffffffffffffffffffffffffffffff83818316178352505050506200011a60201b60201c565b50565b60008151905060006a636f6e736f6c652e6c6f679050602083016000808483855afa5050505050565b60006200015082620001a8565b6200015c8185620001b3565b93506200016e8185602086016200022b565b6200017981620002f7565b840191505092915050565b60006020820190508181036000830152620001a0818462000143565b905092915050565b600081519050919050565b600082825260208201905092915050565b6000620001d18262000221565b9150620001de8362000221565b9250827fffffffffffffffffffffffffffffffffffffffffffffffffffffffffffffffff0382111562000216576200021562000299565b5b828201905092915050565b6000819050919050565b60005b838110156200024b5780820151818401526020810190506200022e565b838111156200025b576000848401525b50505050565b60006200026e8262000221565b91506200027b8362000221565b9250826200028e576200028d620002c8565b5b828206905092915050565b7f4e487b7100000000000000000000000000000000000000000000000000000000600052601160045260246000fd5b7f4e487b7100000000000000000000000000000000000000000000000000000000600052601260045260246000fd5b6000601f19601f8301169050919050565b61144e80620003186000396000f3fe608060405234801561001057600080fd5b506004361061004c5760003560e01c80636fe15b44146100515780639a2cdc081461005b578063a42a466314610079578063bd43a908146100a9575b600080fd5b6100596100c7565b005b610063610865565b60405161007091906110a0565b60405180910390f35b610093600480360381019061008e9190610ccb565b6108b0565b6040516100a091906110a0565b60405180910390f35b6100b16108c8565b6040516100be9190610f9c565b60405180910390f35b42601e600460003373ffffffffffffffffffffffffffffffffffffffff1673ffffffffffffffffffffffffffffffffffffffff168152602001908152602001600020546101149190611171565b10610154576040517f08c379a000000000000000000000000000000000000000000000000000000000815260040161014b90611080565b60405180910390fd5b42600460003373ffffffffffffffffffffffffffffffffffffffff1673ffffffffffffffffffffffffffffffffffffffff1681526020019081526020016000208190555060016000808282546101aa9190611171565b925050819055506101f06040518060400160405280601681526020017f257320776176656420772f206d6573736167652025730000000000000000000081525033610ab2565b606460025442446102019190611171565b61020b9190611171565b6102159190611268565b60028190555061025c6040518060400160405280601681526020017f52616e646f6d20232067656e6572617465643a20256400000000000000000000815250600254610b4e565b600254605f1080156102715750606460025411155b1561043f576102b46040518060400160405280600881526020017f4461696b69636869000000000000000000000000000000000000000000000000815250610a19565b6102f26040518060400160405280600681526020017fe5a4a7e590890000000000000000000000000000000000000000000000000000815250610a19565b6040518060400160405280600a81526020017fe5a4a7e59089f09fa497000000000000000000000000000000000000000000008152506001908051906020019061033d929190610c13565b506000655af3107a400090504781111561038c576040517f08c379a000000000000000000000000000000000000000000000000000000000815260040161038390611040565b60405180910390fd5b60003373ffffffffffffffffffffffffffffffffffffffff16826040516103b290610f87565b60006040518083038185875af1925050503d80600081146103ef576040519150601f19603f3d011682016040523d82523d6000602084013e6103f4565b606091505b5050905080610438576040517f08c379a000000000000000000000000000000000000000000000000000000000815260040161042f90611060565b60405180910390fd5b50506106bc565b600254604b1080156104545750605f60025411155b15610537576104976040518060400160405280600881526020017f4368756b69636869000000000000000000000000000000000000000000000000815250610a19565b6040518060400160405280600a81526020017fe4b8ade59089f09fa5ba00000000000000000000000000000000000000000000815250600190805190602001906104e2929190610c13565b506000652d79883d2000905047811115610531576040517f08c379a000000000000000000000000000000000000000000000000000000000815260040161052890611040565b60405180910390fd5b506106bb565b600254601e10801561054c5750604b60025411155b1561062f5761058f6040518060400160405280600881526020017f53686f6b69636869000000000000000000000000000000000000000000000000815250610a19565b6040518060400160405280600a81526020017fe5b08fe59089f09f989000000000000000000000000000000000000000000000815250600190805190602001906105da929190610c13565b5060006509184e72a000905047811115610629576040517f08c379a000000000000000000000000000000000000000000000000000000000815260040161062090611040565b60405180910390fd5b506106ba565b61066d6040518060400160405280600781526020017f4461696b796f7500000000000000000000000000000000000000000000000000815250610a19565b6040518060400160405280600a81526020017fe5a4a7e587b6f09f98b100000000000000000000000000000000000000000000815250600190805190602001906106b8929190610c13565b505b5b5b600360405180606001604052803373ffffffffffffffffffffffffffffffffffffffff168152602001428152602001600180546106f890611236565b80601f016020809104026020016040519081016040528092919081815260200182805461072490611236565b80156107715780601f1061074657610100808354040283529160200191610771565b820191906000526020600020905b81548152906001019060200180831161075457829003601f168201915b5050505050815250908060018154018082558091505060019003906000526020600020906003020160009091909190915060008201518160000160006101000a81548173ffffffffffffffffffffffffffffffffffffffff021916908373ffffffffffffffffffffffffffffffffffffffff16021790555060208201518160010155604082015181600201908051906020019061080f929190610c13565b5050503373ffffffffffffffffffffffffffffffffffffffff167f5f7e16dc676677766a70e9c5628aa6c54ddb8b6e5188e2ae1e1f17f1ffbea71642600160405161085b9291906110bb565b60405180910390a2565b60006108a86040518060400160405280601781526020017f5765206861766520256420746f74616c20776176657321000000000000000000815250600054610b4e565b600054905090565b60046020528060005260406000206000915090505481565b60606003805480602002602001604051908101604052809291908181526020016000905b82821015610a1057838290600052602060002090600302016040518060600160405290816000820160009054906101000a900473ffffffffffffffffffffffffffffffffffffffff1673ffffffffffffffffffffffffffffffffffffffff1673ffffffffffffffffffffffffffffffffffffffff1681526020016001820154815260200160028201805461097f90611236565b80601f01602080910402602001604051908101604052809291908181526020018280546109ab90611236565b80156109f85780601f106109cd576101008083540402835291602001916109f8565b820191906000526020600020905b8154815290600101906020018083116109db57829003601f168201915b505050505081525050815260200190600101906108ec565b50505050905090565b610aaf81604051602401610a2d9190610fbe565b6040516020818303038152906040527f41304fac000000000000000000000000000000000000000000000000000000007bffffffffffffffffffffffffffffffffffffffffffffffffffffffff19166020820180517bffffffffffffffffffffffffffffffffffffffffffffffffffffffff8381831617835250505050610bea565b50565b610b4a8282604051602401610ac8929190610fe0565b6040516020818303038152906040527f319af333000000000000000000000000000000000000000000000000000000007bffffffffffffffffffffffffffffffffffffffffffffffffffffffff19166020820180517bffffffffffffffffffffffffffffffffffffffffffffffffffffffff8381831617835250505050610bea565b5050565b610be68282604051602401610b64929190611010565b6040516020818303038152906040527f9710a9d0000000000000000000000000000000000000000000000000000000007bffffffffffffffffffffffffffffffffffffffffffffffffffffffff19166020820180517bffffffffffffffffffffffffffffffffffffffffffffffffffffffff8381831617835250505050610bea565b5050565b60008151905060006a636f6e736f6c652e6c6f679050602083016000808483855afa5050505050565b828054610c1f90611236565b90600052602060002090601f016020900481019282610c415760008555610c88565b82601f10610c5a57805160ff1916838001178555610c88565b82800160010185558215610c88579182015b82811115610c87578251825591602001919060010190610c6c565b5b509050610c959190610c99565b5090565b5b80821115610cb2576000816000905550600101610c9a565b5090565b600081359050610cc581611401565b92915050565b600060208284031215610cdd57600080fd5b6000610ceb84828501610cb6565b91505092915050565b6000610d008383610f19565b905092915050565b610d11816111c7565b82525050565b610d20816111c7565b82525050565b6000610d3182611110565b610d3b8185611133565b935083602082028501610d4d856110eb565b8060005b85811015610d895784840389528151610d6a8582610cf4565b9450610d7583611126565b925060208a01995050600181019050610d51565b50829750879550505050505092915050565b6000610da68261111b565b610db0818561114f565b9350610dc0818560208601611203565b610dc981611326565b840191505092915050565b6000610ddf8261111b565b610de98185611160565b9350610df9818560208601611203565b610e0281611326565b840191505092915050565b60008154610e1a81611236565b610e248186611160565b94506001821660008114610e3f5760018114610e5157610e84565b60ff1983168652602086019350610e84565b610e5a856110fb565b60005b83811015610e7c57815481890152600182019150602081019050610e5d565b808801955050505b50505092915050565b6000610e9a603483611160565b9150610ea582611337565b604082019050919050565b6000610ebd602783611160565b9150610ec882611386565b604082019050919050565b6000610ee0600883611160565b9150610eeb826113d5565b602082019050919050565b6000610f03600083611144565b9150610f0e826113fe565b600082019050919050565b6000606083016000830151610f316000860182610d08565b506020830151610f446020860182610f69565b5060408301518482036040860152610f5c8282610d9b565b9150508091505092915050565b610f72816111f9565b82525050565b610f81816111f9565b82525050565b6000610f9282610ef6565b9150819050919050565b60006020820190508181036000830152610fb68184610d26565b905092915050565b60006020820190508181036000830152610fd88184610dd4565b905092915050565b60006040820190508181036000830152610ffa8185610dd4565b90506110096020830184610d17565b9392505050565b6000604082019050818103600083015261102a8185610dd4565b90506110396020830184610f78565b9392505050565b6000602082019050818103600083015261105981610e8d565b9050919050565b6000602082019050818103600083015261107981610eb0565b9050919050565b6000602082019050818103600083015261109981610ed3565b9050919050565b60006020820190506110b56000830184610f78565b92915050565b60006040820190506110d06000830185610f78565b81810360208301526110e28184610e0d565b90509392505050565b6000819050602082019050919050565b60008190508160005260206000209050919050565b600081519050919050565b600081519050919050565b6000602082019050919050565b600082825260208201905092915050565b600081905092915050565b600082825260208201905092915050565b600082825260208201905092915050565b600061117c826111f9565b9150611187836111f9565b9250827fffffffffffffffffffffffffffffffffffffffffffffffffffffffffffffffff038211156111bc576111bb611299565b5b828201905092915050565b60006111d2826111d9565b9050919050565b600073ffffffffffffffffffffffffffffffffffffffff82169050919050565b6000819050919050565b60005b83811015611221578082015181840152602081019050611206565b83811115611230576000848401525b50505050565b6000600282049050600182168061124e57607f821691505b60208210811415611262576112616112f7565b5b50919050565b6000611273826111f9565b915061127e836111f9565b92508261128e5761128d6112c8565b5b828206905092915050565b7f4e487b7100000000000000000000000000000000000000000000000000000000600052601160045260246000fd5b7f4e487b7100000000000000000000000000000000000000000000000000000000600052601260045260246000fd5b7f4e487b7100000000000000000000000000000000000000000000000000000000600052602260045260246000fd5b6000601f19601f8301169050919050565b7f547279696e6720746f207769746864726177206d6f7265206d6f6e657920746860008201527f616e2074686520636f6e7472616374206861732e000000000000000000000000602082015250565b7f4661696c656420746f207769746864726177206d6f6e65792066726f6d20636f60008201527f6e74726163742e00000000000000000000000000000000000000000000000000602082015250565b7f5761697420333073000000000000000000000000000000000000000000000000600082015250565b50565b61140a816111c7565b811461141557600080fd5b5056fea2646970667358221220f55101daef2061479a54b96ee1493f62105fdb312fcf0ce2b425fb002cbd745a64736f6c63430008040033",
  "linkReferences": {},
  "deployedLinkReferences": {}
}